{
  "_format": "hh-sol-artifact-1",
  "contractName": "UrlShortner",
  "sourceName": "contracts/UrlShortner.sol",
  "abi": [
    {
      "inputs": [],
      "stateMutability": "nonpayable",
      "type": "constructor"
    },
    {
      "anonymous": false,
      "inputs": [
        {
          "indexed": false,
          "internalType": "uint256",
          "name": "linkId",
          "type": "uint256"
        },
        {
          "indexed": false,
          "internalType": "string",
          "name": "url",
          "type": "string"
        },
        {
          "indexed": false,
          "internalType": "address",
          "name": "owner",
          "type": "address"
        }
      ],
      "name": "LinkAdded",
      "type": "event"
    },
    {
      "inputs": [
        {
          "internalType": "uint256",
          "name": "linkId",
          "type": "uint256"
        }
      ],
      "name": "getLink",
      "outputs": [
        {
          "internalType": "string",
          "name": "",
          "type": "string"
        }
      ],
      "stateMutability": "view",
      "type": "function"
    },
    {
      "inputs": [
        {
          "internalType": "uint256",
          "name": "",
          "type": "uint256"
        }
      ],
      "name": "linkMapping",
      "outputs": [
        {
          "internalType": "string",
          "name": "",
          "type": "string"
        }
      ],
      "stateMutability": "view",
      "type": "function"
    },
    {
      "inputs": [
        {
          "internalType": "string",
          "name": "url",
          "type": "string"
        }
      ],
      "name": "shortenLink",
      "outputs": [
        {
          "internalType": "uint256",
          "name": "",
          "type": "uint256"
        }
      ],
      "stateMutability": "nonpayable",
      "type": "function"
    }
  ],
  "bytecode": "0x608060405234801561001057600080fd5b5061064b806100206000396000f3fe608060405234801561001057600080fd5b50600436106100415760003560e01c8063393b6df3146100465780635a470493146100ed5780637082ad15146101bc575b600080fd5b6100726004803603602081101561005c57600080fd5b8101908080359060200190929190505050610263565b6040518080602001828103825283818151815260200191508051906020019080838360005b838110156100b2578082015181840152602081019050610097565b50505050905090810190601f1680156100df5780820380516001836020036101000a031916815260200191505b509250505060405180910390f35b6101a66004803603602081101561010357600080fd5b810190808035906020019064010000000081111561012057600080fd5b82018360208201111561013257600080fd5b8035906020019184600183028401116401000000008311171561015457600080fd5b91908080601f016020809104026020016040519081016040528093929190818152602001838380828437600081840152601f19601f820116905080830192505050505050509192919290505050610317565b6040518082815260200191505060405180910390f35b6101e8600480360360208110156101d257600080fd5b8101908080359060200190929190505050610417565b6040518080602001828103825283818151815260200191508051906020019080838360005b8381101561022857808201518184015260208101905061020d565b50505050905090810190601f1680156102555780820380516001836020036101000a031916815260200191505b509250505060405180910390f35b60606000808381526020019081526020016000208054600181600116156101000203166002900480601f01602080910402602001604051908101604052809291908181526020018280546001816001161561010002031660029004801561030b5780601f106102e05761010080835404028352916020019161030b565b820191906000526020600020905b8154815290600101906020018083116102ee57829003601f168201915b50505050509050919050565b600080610323836104c7565b905082600080838152602001908152602001600020908051906020019061034b929190610578565b507ff69b4e062b67b97a21fa14fee238b11d6fca4e34556a2214ebd630e678bc548081843360405180848152602001806020018373ffffffffffffffffffffffffffffffffffffffff168152602001828103825284818151815260200191508051906020019080838360005b838110156103d25780820151818401526020810190506103b7565b50505050905090810190601f1680156103ff5780820380516001836020036101000a031916815260200191505b5094505050505060405180910390a180915050919050565b60006020528060005260406000206000915090508054600181600116156101000203166002900480601f0160208091040260200160405190810160405280929190818152602001828054600181600116156101000203166002900480156104bf5780601f10610494576101008083540402835291602001916104bf565b820191906000526020600020905b8154815290600101906020018083116104a257829003601f168201915b505050505081565b600080826040516020018080602001828103825283818151815260200191508051906020019080838360005b8381101561050e5780820151818401526020810190506104f3565b50505050905090810190601f16801561053b5780820380516001836020036101000a031916815260200191505b509250505060405160208183030381529060405280519060200120905060008160001c90506402540be400818161056e57fe5b0692505050919050565b828054600181600116156101000203166002900490600052602060002090601f016020900481019282601f106105b957805160ff19168380011785556105e7565b828001600101855582156105e7579182015b828111156105e65782518255916020019190600101906105cb565b5b5090506105f491906105f8565b5090565b5b808211156106115760008160009055506001016105f9565b509056fea2646970667358221220fc0df7dc294aec8400758ce7bd11619389463d36331c6b9c638dfed9c6cd253164736f6c63430007030033",
  "linkReferences": {},
  "deployedLinkReferences": {}
}